:020000040800F2
:1000000000000220CD930008E97A0008F17A000888
:10001000F97A0008017B0008097B00080000000055
:10002000000000000000000000000000117B00083C
:100030001F7B0008000000002D7B00083B7B0008B0
:100040001D9400081D9400081D9400081D940008CC
:100050001D9400081D9400081D9400081D940008BC
:100060001D9400081D9400081D9400081D940008AC
:10007000497B00081D9400081D9400081D94000889
:100080001D9400081D9400081D9400081D9400088C
:100090005D7B00081D9400081D9400081D94000855
:1000A0001D9400081D9400081D9400081D9400086C
:1000B0001D9400081D9400081D9400081D9400085C
:1000C0001D9400081D9400081D9400081D9400084C
:1000D0001D9400081D9400081D940008717B000801
:1000E0001D9400081D9400081D9400081D9400082C
:1000F0001D9400081D9400081D9400081D9400081C
:100100001D9400081D9400081D9400081D9400080B
:100110001D9400081D940008857B00081D940008AC
:100120001D940008997B00081D9400081D94000888
:100130001D9400081D9400081D9400081D940008DB
:100140001D940008AD7B00081D9400081D94000854
:100150001D940008C17B0008D57B0008E97B0008DE
:100160001D9400081D9400081D9400081D940008AB
:100170001D9400081D9400081D9400080000000054
:080180001D9400081D94000805
:1001880010B5054C237833B9044B13B10448AFF3C9
:1001980000800123237010BD98010020000000009A
:1001A80084B2000808B5034B1BB103490348AFF3F9
:1001B800008008BD000000009C01002084B20008F7
:1001C80081F0004102E000BF83F0004330B54FEA00
:1001D80041044FEA430594EA050F08BF90EA020F6D
:1001E8001FBF54EA000C55EA020C7FEA645C7FEA00
:1001F800655C00F0E2804FEA5454D4EB5555B8BF23
:100208006D420CDD2C4480EA020281EA030382EA93
:10021800000083EA010180EA020281EA0303362D25
:1002280088BF30BD11F0004F4FEA01314FF4801CF8
:100238004CEA113102D0404261EB410113F0004F0A
:100248004FEA03334CEA133302D0524263EB4303C1
:1002580094EA050F00F0A780A4F10104D5F1200E5F
:100268000DDB02FA0EFC22FA05F2801841F10001BA
:1002780003FA0EF2801843FA05F359410EE0A5F18E
:1002880020050EF1200E012A03FA0EFC28BF4CF0BF
:10029800020C43FA05F3C01851EBE37101F0004575
:1002A80007D54FF0000EDCF1000C7EEB00006EEB82
:1002B8000101B1F5801F1BD3B1F5001F0CD349080C
:1002C8005FEA30004FEA3C0C04F101044FEA445263
:1002D80012F5800F80F09A80BCF1004F08BF5FEAEA
:1002E800500C50F1000041EB045141EA050130BDCA
:1002F8005FEA4C0C404141EB0101013C28BFB1F5DC
:10030800801FE9D291F0000F04BF01460020B1FA26
:1003180081F308BF2033A3F10B03B3F120020CDAF9
:100328000C3208DD02F1140CC2F10C0201FA0CF0D7
:1003380021FA02F10CE002F11402D8BFC2F1200C3C
:1003480001FA02F120FA0CFCDCBF41EA0C019040F2
:10035800E41AA2BF01EB0451294330BD6FEA04043B
:100368001F3C1CDA0C340EDC04F11404C4F1200226
:1003780020FA04F001FA02F340EA030021FA04F338
:1003880045EA030130BDC4F10C04C4F1200220FA8F
:1003980002F001FA04F340EA0300294630BD21FACD
:1003A80004F0294630BD94F0000F83F4801306BF93
:1003B80081F480110134013D4EE77FEA645C18BF87
:1003C8007FEA655C29D094EA050F08BF90EA020F1E
:1003D80005D054EA000C04BF1946104630BD91EA16
:1003E800030F1EBF0021002030BD5FEA545C05D119
:1003F8004000494128BF41F0004130BD14F5800458
:100408003CBF01F5801130BD01F0004545F0FE41CB
:1004180041F470014FF0000030BD7FEA645C1ABF00
:10042800194610467FEA655C1CBF0B46024650EA37
:10043800013406BF52EA033591EA030F41F4002163
:1004480030BD00BF90F0000F04BF0021704730B5E9
:100458004FF4806404F132044FF000054FF00001BE
:1004680050E700BF90F0000F04BF0021704730B57F
:100478004FF4806404F1320410F0004548BF404254
:100488004FF000013EE700BF42004FEAE2014FEAA9
:1004980031014FEA02701FBF12F07F4393F07F4F84
:1004A80081F06051704732F07F4208BF704793F087
:1004B8007F4F04BF41F40021704730B54FF460749A
:1004C80001F0004521F000411CE700BF50EA01029D
:1004D80008BF704730B54FF000050AE050EA010246
:1004E80008BF704730B511F0004502D5404261EBB6
:1004F80041014FF4806404F132045FEA915C3FF4F7
:10050800D8AE4FF003025FEADC0C18BF03325FEA93
:10051800DC0C18BF033202EBDC02C2F1200300FA44
:1005280003FC20FA02F001FA03FE40EA0E0021FA69
:1005380002F11444BDE600BF70B54FF0FF0C4CF457
:10054800E06C1CEA11541DBF1CEA135594EA0C0F09
:1005580095EA0C0F00F0DEF82C4481EA030621EA44
:100568004C5123EA4C5350EA013518BF52EA03357F
:1005780041F4801143F4801338D0A0FB02CE4FF031
:100588000005E1FB02E506F00042E0FB03E54FF061
:100598000006E1FB03569CF0000F18BF4EF0010E59
:1005A800A4F1FF04B6F5007F64F5407404D25FEA55
:1005B8004E0E6D4146EB060642EAC62141EA555108
:1005C8004FEAC52040EA5E504FEACE2EB4F1FD0C4A
:1005D80088BFBCF5E06F1ED8BEF1004F08BF5FEAC8
:1005E800500E50F1000041EB045170BD06F000467A
:1005F80046EA010140EA020081EA0301B4EB5C0427
:10060800C2BFD4EB0C0541EA045170BD41F480111E
:100618004FF0000E013C00F3AB8014F1360FDEBF43
:10062800002001F0004170BDC4F10004203C35DA1F
:100638000C341BDC04F11404C4F1200500FA05F3A2
:1006480020FA04F001FA05F240EA020001F0004243
:1006580021F0004110EBD37021FA04F642EB0601B9
:100668005EEA430E08BF20EAD37070BDC4F10C04E3
:10067800C4F1200500FA04F320FA05F001FA04F2A7
:1006880040EA020001F0004110EBD37041F1000193
:100698005EEA430E08BF20EAD37070BDC4F120059E
:1006A80000FA05F24EEA020E20FA04F301FA05F206
:1006B80043EA020321FA04F001F0004121FA04F2AE
:1006C80020EA020000EBD3705EEA430E08BF20EA7E
:1006D800D37070BD94F0000F0FD101F000464000B8
:1006E80041EB010111F4801F08BF013CF7D041EA3A
:1006F800060195F0000F18BF704703F0004652003E
:1007080043EB030313F4801F08BF013DF7D043EA0E
:100718000603704794EA0C0F0CEA135518BF95EAC4
:100728000C0F0CD050EA410618BF52EA4306D1D14B
:1007380081EA030101F000414FF0000070BD50EA6A
:10074800410606BF1046194652EA430619D094EAF4
:100758000C0F02D150EA013613D195EA0C0F05D1DE
:1007680052EA03361CBF104619460AD181EA030132
:1007780001F0004141F0FE4141F470014FF00000EA
:1007880070BD41F0FE4141F4780170BD70B54FF085
:10079800FF0C4CF4E06C1CEA11541DBF1CEA135505
:1007A80094EA0C0F95EA0C0F00F0A7F8A4EB0504E7
:1007B80081EA030E52EA03354FEA013100F08880DE
:1007C8004FEA03334FF0805545EA131343EA1263A7
:1007D8004FEA022245EA111545EA10654FEA00265C
:1007E8000EF000419D4208BF964244F1FD0404F515
:1007F800407402D25B084FEA3202B61A65EB030571
:100808005B084FEA32024FF480104FF4002CB6EB2D
:10081800020E75EB030E22BFB61A754640EA0C00AD
:100828005B084FEA3202B6EB020E75EB030E22BFED
:10083800B61A754640EA5C005B084FEA3202B6EB2E
:10084800020E75EB030E22BFB61A754640EA9C00ED
:100858005B084FEA3202B6EB020E75EB030E22BFBD
:10086800B61A754640EADC0055EA060E18D04FEA7B
:10087800051545EA16754FEA06164FEAC30343EA1B
:1008880052734FEAC2025FEA1C1CC0D111F4801FE8
:100898000BD141EA00014FF000004FF0004CB6E7E1
:1008A80011F4801F04BF01430020B4F1FD0C88BF80
:1008B800BCF5E06F3FF6AFAEB5EB030C04BFB6EB8B
:1008C800020C5FEA500C50F1000041EB045170BD7E
:1008D8000EF0004E4EEA113114EB5C04C2BFD4EBAB
:1008E8000C0541EA045170BD41F480114FF0000E2F
:1008F800013C90E645EA060E8DE60CEA135594EAAB
:100908000C0F08BF95EA0C0F3FF43BAF94EA0C0FAD
:100918000AD150EA01347FF434AF95EA0C0F7FF422
:1009280025AF104619462CE795EA0C0F06D152EA76
:1009380003353FF4FDAE1046194622E750EA41065A
:1009480018BF52EA43067FF4C5AE50EA41047FF46B
:100958000DAF52EA43057FF4EBAE12E74FF0FF3CD0
:1009680006E000BF4FF0010C02E000BF4FF0010CA1
:100978004DF804CD4FEA410C7FEA6C5C4FEA430C1A
:1009880018BF7FEA6C5C1BD001B050EA410C0CBF69
:1009980052EA430C91EA030F02BF90EA020F0020CB
:1009A800704710F1000F91EA030F58BF994208BF32
:1009B80090422CBFD8176FEAE37040F001007047EF
:1009C8004FEA410C7FEA6C5C02D150EA013C07D146
:1009D8004FEA430C7FEA6C5CD6D152EA033CD3D091
:1009E8005DF8040B704700BF8446104662468C468B
:1009F8001946634600E000BF01B5FFF7B7FF0028BE
:100A080048BF10F1000F01BD4DF808EDFFF7F4FFE6
:100A18000CBF012000205DF808FB00BF4DF808ED71
:100A2800FFF7EAFF34BF012000205DF808FB00BF94
:100A38004DF808EDFFF7E0FF94BF012000205DF8B6
:100A480008FB00BF4DF808EDFFF7CEFF94BF01206B
:100A580000205DF808FB00BF4DF808EDFFF7C4FF64
:100A680034BF012000205DF808FB00BF4FEA410CAD
:100A78007FEA6C5C02D150EA013C0AD14FEA430C90
:100A88007FEA6C5C02D152EA033C02D14FF00000CD
:100A980070474FF0010070474FEA410212F500120B
:100AA80015D211D56FF47873B3EB625212D94FEAAD
:100AB800C12343F0004343EA505311F0004F23FA97
:100AC80002F018BF404270474FF00000704750EAEC
:100AD800013005D111F0004008BF6FF000407047A9
:100AE8004FF00000704700BF4FEA4102B2F1E04307
:100AF80024BFB3F5001CDCF1FE5C0DD901F0004CFD
:100B08004FEAC0024CEA5070B2F1004F40EB83004C
:100B180008BF20F00100704711F0804F21D113F178
:100B28003872BCBF01F00040704741F480114FEAB1
:100B38005252C2F11802C2F1200C10FA0CF320FA3A
:100B480002F018BF40F001004FEAC1234FEAD32357
:100B580003FA0CFC40EA0C0023FA02F34FEA4303C1
:100B6800CCE77FEA625307D150EA01331EBF4FF04A
:100B7800FE4040F44000704701F0004040F0FE4065
:100B880040F40000704700BF53B94AB9002908BFB4
:100B980000281CBF4FF0FF314FF0FF3000F088B93C
:100BA800ADF1080C6DE904CE00F006F8DDF804E0BC
:100BB800DDE9022304B070472DE9F047089D8E4611
:100BC80004468846002B4AD18A42174662D9B2FAAF
:100BD80082F64EB1C6F1200301FA06F820FA03F3B3
:100BE800B74043EA0808B4404FEA174E1FFA87FC9B
:100BF800B8FBFEF1230C0EFB118843EA084301FB06
:100C08000CF29A4209D9FB1801F1FF3080F0EA8012
:100C18009A4240F2E78002393B449A1AA3B2B2FBE7
:100C2800FEF00EFB102243EA024300FB0CFC9C453D
:100C380009D9FB1800F1FF3280F0D6809C4540F2BC
:100C4800D3803B44023840EA0140A3EB0C03002167
:100C58001DB1F3400022C5E90032BDE8F0878B42A0
:100C680005D90DB1C5E9000100210846F5E7B3FA39
:100C780083F1002946D1734502D3824200F20581EF
:100C8800841A6EEB030201209046002DE5D0C5E9D9
:100C98000048E2E7002A00F09080B2FA82F6002EBF
:100CA80040F0A4808A1A030C4FEA174E80B2BCB2F7
:100CB8000121B2FBFEFC0EFB1C2243EA024304FBAB
:100CC8000CF29A4207D9FB180CF1FF3802D29A426B
:100CD80000F2E080C4469B1AB3FBFEF20EFB12330F
:100CE80040EA034302FB04F49C4207D9FB1802F1D3
:100CF800FF3002D29C4200F2CA8002461B1B42EA25
:100D08000C40A5E7C1F120068B4022FA06F71F43E5
:100D18000EFA01F420FA06F32EFA06FE4FEA1749F6
:100D2800234300FA01F81FFA87FCBEFBF9F01C0CFC
:100D380009FB10EE44EA0E4400FB0CFEA64502FA3D
:100D480001F209D93C1900F1FF3A80F09C80A645D0
:100D580040F2998002383C44A4EB0E041FFA83FE4B
:100D6800B4FBF9F309FB13444EEA044403FB0CFCFF
:100D7800A44508D93C1903F1FF3E80F08280A445C0
:100D88007FD9023B3C4443EA0040A4EB0C04A0FB9F
:100D980002EC64457346E14662D35FD05DB1B8EBBF
:100DA800030264EB090404FA06F622FA01F31E436F
:100DB800CC40C5E9006400214FE7B1FBF2FC010C0F
:100DC80041EA0E4180B240EA01423B4638463C4681
:100DD800B846BE462026B1FBF7F1A2EB080241EA6D
:100DE8000C4166E7014618E710462CE7C6F12002D9
:100DF8002EFA02F3B740B14020FA02F24FEA174E3A
:100E08000A43B3FBFEF8BCB20EFB1833110C41EADF
:100E1800034108FB04F9B04089454FEA104380B20A
:100E28003ED9791808F1FF3C01D289451FD8A1EBBA
:100E38000901B1FBFEF909FB04F80EFB191192B286
:100E480042EA0142424529D2BA1809F1FF31C4D217
:100E58004245C2D2A9F102013A44BEE7F0459DD20B
:100E6800BEEB02036CEB070C0138E14696E7A7EBF3
:100E780009094944A8F1020CB1FBFEF909FB04F881
:100E8800DBE773467FE7504666E70846FDE63B44E6
:100E9800023A33E7ACF1020C3B441CE749469CE7B5
:100EA800A1EB0901C446B1FBFEF909FB04F8C4E74C
:100EB800704700BF10F8012B11F8013B012A28BF29
:100EC8009A42F7D0D01A704780B400AF064BD3F8D7
:100ED8008830054A43F47003C2F8883000BFBD4625
:100EE8005DF8047B704700BF00ED00E080B584B07A
:100EF80000AF78607B68002B01D101230FE27B688B
:100F08001B68914A934209D07B681B688F4A9342B9
:100F180004D04FF48F718E4806F010FD7B681B7E5D
:100F2800002B08D07B681B7E012B04D040F21F11D8
:100F3800874806F003FD7B685B7E002B08D07B6842
:100F48005B7E012B04D04FF49071814806F0F6FCCB
:100F58007B689B7E002B08D07B689B7E012B04D08E
:100F680040F221117A4806F0E9FC7B68DB7E002B11
:100F780008D07B68DB7E012B04D04FF49171744854
:100F880006F0DCFC7B681B7F002B08D07B681B7F8E
:100F9800012B04D040F223116D4806F0CFFC7B688A
:100FA8005B7F002B08D07B685B7F012B04D04FF45C
:100FB8009271674806F0C2FC7B689B68002B13D0CF
:100FC8007B689B68B3F1804F0ED07B689B68B3F158
:100FD800004F09D07B689B68B3F1404F04D040F2C2
:100FE80025115B4806F0AAFC7B68DB68002B13D050
:100FF8007B68DB68B3F1807F0ED07B68DB68B3F178
:10100800007F09D07B68DB68B3F1407F04D04FF4E0
:1010180093714F4806F092FC7B681B69002B4FD0F8
:101028007B681B69B3F5803F4AD07B681B69B3F5C1
:10103800003F45D07B681B69B3F5403F40D07B68D3
:101048001B69B3F5802F3BD07B681B69B3F5A02FD4
:1010580036D07B681B69B3F5C02F31D07B681B691C
:10106800B3F5E02F2CD07B681B69B3F5002F27D090
:101078007B681B69B3F5102F22D07B681B69B3F519
:10108800202F1DD07B681B69B3F5302F18D07B68E3
:101098001B69B3F5402F13D07B681B69B3F5502F3C
:1010A8000ED07B681B69B3F5602F09D07B681B697C
:1010B800B3F5702F04D040F22711254806F03EFC06
:1010C8007B685B69002B27D07B685B69B3F5801F61
:1010D80022D07B685B69B3F5001F1DD07B685B6914
:1010E800B3F5401F18D07B685B69B3F5800F13D048
:1010F8007B685B69B3F5A00F0ED07B685B69B3F5BD
:10110800C00F09D07B685B69B3F5E00F04D04FF4DA
:1011180094710F4806F012FC7B685B68002B04D0C2
:101128007B685B68B3F5806F04D940F229110848E1
:1011380006F004FC7B6893F82030DBB2002B09D161
:10114800786806F00FF905E0006400400068004088
:10115800A0B200087B681B681A687B681B6842F0AD
:1011680001021A6002F0FCFEF86012E002F0F8FEDC
:101178000246FB68D31A0A2B0BD97B685B6A43F4D7
:1011880000327B685A627B68052283F8202001239D
:10119800C5E07B681B685B6803F00103002BE5D0A2
:1011A8007B681B681A687B681B6822F002021A6059
:1011B80002F0D6FEF86012E002F0D2FE0246FB68AA
:1011C800D31A0A2B0BD97B685B6A43F400327B681D
:1011D8005A627B68052283F8202001239FE07B6800
:1011E8001B685B6803F00203002BE5D17B681B7E5C
:1011F800012B08D17B681B681A687B681B6842F062
:1012080080021A6007E07B681B681A687B681B68A5
:1012180022F080021A607B685B7E012B08D17B6814
:101228001B681A687B681B6842F040021A6007E076
:101238007B681B681A687B681B6822F040021A608A
:101248007B689B7E012B08D17B681B681A687B68CA
:101258001B6842F020021A6007E07B681B681A6866
:101268007B681B6822F020021A607B68DB7E012BFA
:1012780008D17B681B681A687B681B6822F010021B
:101288001A6007E07B681B681A687B681B6842F075
:1012980010021A607B681B7F012B08D17B681B68D2
:1012A8001A687B681B6842F008021A6007E07B68CE
:1012B8001B681A687B681B6822F008021A607B6842
:1012C8005B7F012B08D17B681B681A687B681B68E9
:1012D80042F004021A6007E07B681B681A687B68A2
:1012E8001B6822F004021A607B689A687B68DB68D6
:1012F8001A437B681B691A437B685B6942EA0301EE
:101308007B685B685A1E7B681B680A43DA617B68E6
:1013180000225A627B68012283F8202000231846A5
:101328001037BD4680BD00BF80B586B000AF78607D
:1013380039607B6893F82030FB75FB7D012B03D067
:10134800FB7D022B40F02C813B681B68B3F5803F86
:1013580004D340F25231984806F0F0FA3B685B68D3
:10136800B3F5803F04D340F25331934806F0E6FAD0
:101378003B689B68B3F5803F04D34FF455718E48A2
:1013880006F0DCFA3B68DB68B3F5803F04D340F233
:101398005531894806F0D2FA3B689B69002B08D082
:1013A8003B689B69012B04D040F25631824806F015
:1013B800C5FA3B68DB69002B08D03B68DB69012B69
:1013C80004D040F257317C4806F0B8FA3B681B69F4
:1013D800002B08D03B681B69012B04D04FF45671D1
:1013E800754806F0ABFA3B681B6A002B08D03B68CF
:1013F8001B6A012B04D040F259316F4806F09EFA5F
:101408006E4B3B613B685B691B2B04D940F275311D
:10141800694806F093FA3B685B6A1B2B04D940F2D3
:101428007631654806F08AFA3B69D3F8003243F012
:1014380001023B69C3F800223B69D3F8003223F468
:101448007C523B69C3F800223B69D3F800223B6811
:101458005B6A1B021A433B69C3F800223B685B695D
:1014680003F01F03012202FA03F3FB603B69D3F880
:101478001C22FB68DB431A403B69C3F81C223B680B
:10148800DB69002B23D13B69D3F80C22FB68DB43D3
:101498001A403B69C3F80C223B68DB6819043B68B7
:1014A8005B689BB23A68526919433B69483243F812
:1014B80032103B689B6819043B681B689AB23B680A
:1014C8005B690A4339694833DB000B445A603B685F
:1014D800DB69012B22D13B69D3F80C22FB681A4344
:1014E8003B69C3F80C223B681B6819043B685B68BE
:1014F8009BB23A68526919433B69483243F8321043
:101508003B689B6819043B68DB689AB23B685B6977
:101518000A4339694833DB000B445A603B689B69CE
:10152800002B09D13B69D3F80422FB68DB431A403E
:101538003B69C3F8042207E03B69D3F80422FB683F
:101548001A433B69C3F804223B681B69002B09D185
:101558003B69D3F81422FB68DB431A403B69C3F8A4
:10156800142207E03B69D3F81422FB681A433B694D
:10157800C3F814223B681B6A012B07D13B69D3F8D7
:101588001C22FB681A433B69C3F81C223B69D3F849
:10159800003223F001023B69C3F80022002306E071
:1015A8007B685B6A43F480227B685A620123184691
:1015B8001837BD4680BD00BFA0B2000800640040D7
:1015C80080B584B000AF78607B6893F82030DBB2D8
:1015D800012B2ED17B68022283F820207B681B68B0
:1015E8001A687B681B6822F001021A6002F0B8FCD6
:1015F800F86012E002F0B4FC0246FB68D31A0A2B2A
:101608000BD97B685B6A43F400327B685A627B685B
:10161800052283F82020012312E07B681B685B68A1
:1016280003F00103002BE5D17B6800225A620023F6
:1016380006E07B685B6A43F400227B685A620123F8
:1016480018461037BD4680BD80B588B000AFF86039
:10165800B9607A603B60FB6893F82030FB77FB68E1
:101668001B689B68BB61BB689B68002B08D0BB6884
:101678009B68042B04D040F2EC417F4806F05EF9E9
:10168800BB68DB68002B08D0BB68DB68022B04D082
:1016980040F2ED41784806F051F9BB681B69082B08
:1016A80004D940F2EE41744806F048F9BB689B68DB
:1016B800002B0AD1BB681B68B3F5006F0FD340F24B
:1016C800F1416D4806F03AF909E0BB685B68B3F18F
:1016D800005F04D340F2F541674806F02FF9BB6874
:1016E8001B7D002B08D0BB681B7D012B04D040F26A
:1016F800F741614806F022F9FB7F012B03D0FB7FFD
:10170800022B40F0AD80BB6903F08063002B0AD147
:10171800BB6903F00063002B05D1BB6903F080535C
:10172800002B00F09580BB691B0E03F003037B615F
:1017380001227B699A403B681A60BB689B68002B52
:101748000DD1BB681B685A05BB68DB68F968096876
:101758001A437B6918331B010B441A600FE0BB68FE
:101768005B68DA00BB689B681A43BB68DB68F9688A
:1017780009681A437B6918331B010B441A60FB681C
:101788001968BB681A697B6918331B010B44043359
:101798001A60BB681B7D012B11D1FB681A687B6935
:1017A80018331B01134404331B68FA68116843F4A7
:1017B80080727B6918331B010B4404331A607B6801
:1017C80007331B781A067B6806331B781B041A43F9
:1017D8007B6805331B781B0213437A68043212783E
:1017E8001046FA68116843EA00027B691B010B4442
:1017F80003F5C6731A607B6803331B781A067B6887
:1018080002331B781B041A437B6801331B781B02C5
:1018180013437A6812781046FA68116843EA00029E
:101828007B691B010B4403F5C4731A60FB681A68D3
:101838007B6918331B0113441B68FA68116843F06D
:1018480001027B6918331B010B441A6000230EE068
:10185800FB685B6A43F40012FB685A62012306E0E6
:10186800FB685B6A43F48022FB685A6201231846CE
:101878002037BD4680BD00BFA0B2000880B586B045
:1018880000AFF860B9607A603B60FB6893F820307D
:10189800FB75BB68002B07D0BB68012B04D040F256
:1018A800EB518C4806F04AF8FB7D012B03D0FB7DF9
:1018B800022B40F00381BB68002B0ED1FB681B682C
:1018C800DB6803F00303002B16D1FB685B6A43F463
:1018D8000012FB685A620123F7E0FB681B681B696A
:1018E80003F00303002B07D1FB685B6A43F4001283
:1018F800FB685A620123E8E0FB681A68BB681B337F
:101908001B0113441B6803F004027B689A607B6820
:101918009B68002B0CD1FB681A68BB681B331B0142
:1019280013441B685B0DC3F30A027B681A600BE063
:10193800FB681A68BB681B331B0113441B68DB0870
:1019480023F060427B685A60FB681A68BB681B33E7
:101958001B0113441B6803F002027B68DA60FB6812
:101968001A68BB681B331B01134404331B6803F05C
:101978000803002B03D07B6808221A610BE0FB6880
:101988001A68BB681B331B01134404331B6803F03C
:101998000F027B681A61FB681A68BB681B331B015E
:1019A800134404331B681B0ADAB27B689A61FB682C
:1019B8001A68BB681B331B01134404331B681B0CD8
:1019C8009AB27B685A61FB681A68BB681B011344AA
:1019D80003F5DC731B68DAB23B681A70FB681A6897
:1019E800BB681B01134403F5DC731B681A0A3B68C8
:1019F8000133D2B21A70FB681A68BB681B01134422
:101A080003F5DC731B681A0C3B680233D2B21A70F8
:101A1800FB681A68BB681B01134403F5DC731B6879
:101A28001A0E3B680333D2B21A70FB681A68BB6897
:101A38001B01134403F5DE731A683B680433D2B202
:101A48001A70FB681A68BB681B01134403F5DE7340
:101A58001B681A0A3B680533D2B21A70FB681A6809
:101A6800BB681B01134403F5DE731B681A0C3B6843
:101A78000633D2B21A70FB681A68BB681B0113449C
:101A880003F5DE731B681A0E3B680733D2B21A706F
:101A9800BB68002B08D1FB681B68DA68FB681B6809
:101AA80042F02002DA6007E0FB681B681A69FB68ED
:101AB8001B6842F020021A61002306E0FB685B6A9B
:101AC80043F48022FB685A62012318461837BD4642
:101AD80080BD00BFA0B2000880B584B000AF7860B8
:101AE80039607B6893F82030FB733B68114A934256
:101AF80004D940F28461104805F020FFFB7B012BDC
:101B080002D0FB7B022B09D17B681B6859697B6873
:101B18001B683A680A435A61002306E07B685B6ADF
:101B280043F480227B685A62012318461037BD4669
:101B380080BD00BF7F8F0300A0B2000880B58AB0C7
:101B480000AF786000237B627B681B685B693B623F
:101B58007B681B685B68FB617B681B689B68BB6173
:101B68007B681B68DB687B617B681B681B693B6162
:101B78007B681B689B69FB603B6A03F00103002BD1
:101B88007CD0BB6903F00103002B23D07B681B6862
:101B980001229A60BB6903F00203002B03D0786826
:101BA80000F083F916E0BB6903F00403002B04D0AE
:101BB8007B6A43F400637B620CE0BB6903F00803B3
:101BC800002B04D07B6A43F480537B6202E0786880
:101BD80000F089F9BB6903F48073002B24D07B687B
:101BE8001B684FF480729A60BB6903F40073002B82
:101BF80003D0786800F063F916E0BB6903F48063EA
:101C0800002B04D07B6A43F400537B620CE0BB6971
:101C180003F40063002B04D07B6A43F480437B62A7
:101C280002E0786800F069F9BB6903F48033002B9F
:101C380024D07B681B684FF480329A60BB6903F438
:101C48000033002B03D0786800F043F916E0BB6935
:101C580003F48023002B04D07B6A43F400437B62A7
:101C68000CE0BB6903F40023002B04D07B6A43F427
:101C780080337B6202E0786800F049F93B6A03F040
:101C88000803002B0CD07B6903F01003002B07D04E
:101C98007B6A43F400737B627B681B681022DA60FE
:101CA8003B6A03F00403002B0BD07B6903F00803A5
:101CB800002B06D07B681B680822DA60786800F081
:101CC80030F93B6A03F00203002B09D07B681B68DC
:101CD800DB6803F00303002B02D0786806F03AFDB6
:101CE8003B6A03F04003002B0CD03B6903F0100360
:101CF800002B07D07B6A43F480637B627B681B6898
:101D080010221A613B6A03F02003002B0BD03B69B9
:101D180003F00803002B06D07B681B6808221A61B1
:101D2800786800F012F93B6A03F01003002B09D021
:101D38007B681B681B6903F00303002B02D07868DB
:101D480000F0F9F83B6A03F40033002B0BD0FB6971
:101D580003F01003002B06D07B681B6810225A6022
:101D6800786800F0FCF83B6A03F48033002B0BD052
:101D7800FB6903F00803002B06D07B681B68082268
:101D88005A60786800F0F5F83B6A03F40043002BCA
:101D98007BD0FB6903F00403002B72D03B6A03F489
:101DA8008073002B08D0FB6803F00103002B03D0DD
:101DB8007B6A43F001037B623B6A03F40073002BE8
:101DC80008D0FB6803F00203002B03D07B6A43F0C2
:101DD80002037B623B6A03F48063002B08D0FB6834
:101DE80003F00403002B03D07B6A43F004037B62F7
:101DF8003B6A03F40063002B43D0FB6803F07003D5
:101E0800002B3ED0FB6803F07003602B2BD0602BB7
:101E18002ED8502B22D0502B2AD8402B19D0402B0B
:101E280026D8302B10D0302B22D8102B02D0202BC4
:101E380005D01DE07B6A43F008037B6219E07B6AEA
:101E480043F010037B6214E07B6A43F020037B625B
:101E58000FE07B6A43F040037B620AE07B6A43F051
:101E680080037B6205E07B6A43F480737B6200E059
:101E780000BF7B681B689A697B681B6822F0700248
:101E88009A617B681B6804225A607B6A002B08D021
:101E98007B685A6A7B6A1A437B685A62786800F0E2
:101EA80072F800BF2837BD4680BD80B483B000AF4C
:101EB800786000BF0C37BD465DF8047B704780B47E
:101EC80083B000AF786000BF0C37BD465DF8047B77
:101ED800704780B483B000AF786000BF0C37BD4650
:101EE8005DF8047B704780B483B000AF786000BFB2
:101EF8000C37BD465DF8047B704780B483B000AFF3
:101F0800786000BF0C37BD465DF8047B704780B42D
:101F180083B000AF786000BF0C37BD465DF8047B26
:101F2800704780B483B000AF786000BF0C37BD46FF
:101F38005DF8047B704780B483B000AF786000BF61
:101F48000C37BD465DF8047B704780B483B000AFA2
:101F5800786000BF0C37BD465DF8047B704780B4DD
:101F680083B000AF786000BF0C37BD465DF8047BD6
:101F7800704780B483B000AF786000BF0C37BD46AF
:101F88005DF8047B704780B483B000AF786000BF11
:101F98000C37BD465DF8047B7047000080B586B0FD
:101FA80000AF78607B68002B01D1012318E37B68C0
:101FB8001B680F2B03D9E621974805F0BFFC7B6807
:101FC8001B6803F00103002B00F088807B685B68C6
:101FD800002B0DD07B685B68B3F5803F08D07B6829
:101FE8005B68B3F5A02F03D0EB218B4805F0A6FC66
:101FF8008A4B9B6803F00C03042B0CD0874B9B681F
:1020080003F00C03082B12D1844B5B6803F48003A4
:10201800B3F5800F0BD1814B1B6803F40033002B01
:102028005BD07B685B68002B57D10123D8E27B68C3
:102038005B68B3F5803F06D1784B1B68774A43F459
:10204800803313601DE07B685B68B3F5A02F0CD16B
:10205800724B1B68714A43F4802313606F4B1B68F3
:102068006E4A43F4803313600BE06C4B1B686B4A79
:1020780023F480331360694B1B68684A23F4802378
:1020880013607B685B68002B13D001F069FF38612F
:1020980008E001F065FF02463B69D31A642B01D9B9
:1020A80003239DE25D4B1B6803F40033002BF0D043
:1020B80014E001F055FF386108E001F051FF0246D5
:1020C8003B69D31A642B01D9032389E2534B1B685C
:1020D80003F40033002BF0D100E000BF7B681B68DD
:1020E80003F00203002B79D07B68DB68002B08D053
:1020F8007B68DB68012B04D040F21D11464805F0CF
:102108001DFC7B681B691F2B04D94FF48F71424853
:1021180005F014FC414B9B6803F00C03002B0BD01B
:102128003E4B9B6803F00C03082B1CD13B4B5B68B0
:1021380003F48003002B16D1384B1B6803F002030D
:10214800002B05D07B68DB68012B01D0012347E217
:10215800324B1B6823F0F8027B681B69DB002F49B0
:1021680013430B603AE07B68DB68002B20D02C4BD4
:1021780001221A6001F0F4FE386108E001F0F0FE77
:1021880002463B69D31A022B01D9032328E2234BC9
:102198001B6803F00203002BF0D0204B1B6823F0D0
:1021A800F8027B681B69DB001C4913430B6015E0D0
:1021B8001B4B00221A6001F0D3FE386108E001F0E1
:1021C800CFFE02463B69D31A022B01D9032307E24B
:1021D800124B1B6803F00203002BF0D17B681B68CD
:1021E80003F00803002B45D07B685B69002B08D0FF
:1021F8007B685B69012B04D04FF4AF71064805F08A
:102208009DFB7B685B69002B1ED0064B01221A6080
:1022180001F0A6FE386110E010B300080038024053
:1022280000004742800E474201F09AFE02463B6991
:10223800D31A022B01D90323D2E15E4B5B6F03F063
:102248000203002BF0D015E05B4B00221A6001F06E
:1022580087FE386108E001F083FE02463B69D31A25
:10226800022B01D90323BBE1524B5B6F03F002033E
:10227800002BF0D17B681B6803F00403002B00F0EF
:10228800B0800023FB757B689B68002B0CD07B68B3
:102298009B68012B08D07B689B68052B04D04FF402
:1022A800C571464805F04AFB424B1B6C03F080534E
:1022B800002B0FD10023BB603E4B1B6C3D4A43F003
:1022C800805313643B4B1B6C03F08053BB60BB68AB
:1022D8000123FB753A4B1B6803F48073002B18D15C
:1022E800374B1B68364A43F48073136001F038FE9D
:1022F800386108E001F034FE02463B69D31A022B2C
:1023080001D903236CE12E4B1B6803F48073002B67
:10231800F0D07B689B68012B06D1264B1B6F254AA2
:1023280043F0010313671CE07B689B68052B0CD105
:10233800204B1B6F1F4A43F0040313671D4B1B6F91
:102348001C4A43F0010313670BE01A4B1B6F194A31
:1023580023F001031367174B1B6F164A23F004037E
:1023680013677B689B68002B15D001F0F9FD386175
:102378000AE001F0F5FD02463B69D31A41F28832C2
:10238800934201D903232BE10A4B1B6F03F002038D
:10239800002BEED01CE001F0E3FD386112E001F003
:1023A800DFFD02463B69D31A41F28832934209D9CC
:1023B800032315E100380240800E474210B300089D
:1023C80000700040884B1B6F03F00203002BE6D11E
:1023D800FB7D012B05D1844B1B6C834A23F0805372
:1023E80013647B689B69002B0CD07B689B69012B6D
:1023F80008D07B689B69022B04D040F2CD117B4842
:1024080005F09CFA7B689B69002B00F0E880764B0E
:102418009B6803F00C03082B00F0A9807B689B697C
:10242800022B40F08D807B68DB69002B09D07B682C
:10243800DB69B3F5800F04D04FF4EB716B4805F0FE
:102448007DFA7B681B6A012B03D97B681B6A3F2BCB
:1024580004D940F2D711654805F070FA7B685B6AC9
:10246800312B04D97B685B6AB3F5D87F04D94FF464
:10247800EC715E4805F062FA7B689B6A022B10D00B
:102488007B689B6A042B0CD07B689B6A062B08D060
:102498007B689B6A082B04D040F2D911534805F099
:1024A8004DFA7B68DB6A012B03D97B68DB6A0F2B4B
:1024B80004D94FF4ED714D4805F040FA4C4B002219
:1024C8001A6001F04DFD386108E001F049FD02464F
:1024D8003B69D31A022B01D9032381E0424B1B68C5
:1024E80003F00073002BF0D17B68DA697B681B6A04
:1024F8001A437B685B6A9B011A437B689B6A5B088B
:10250800013B1B041A437B68DB6A1B0636491343ED
:102518004B60374B01221A6001F022FD386108E058
:1025280001F01EFD02463B69D31A022B01D9032391
:1025380056E02D4B1B6803F00073002BF0D04EE0E3
:102548002B4B00221A6001F00BFD386108E001F006
:1025580007FD02463B69D31A022B01D903233FE04A
:10256800214B1B6803F00073002BF0D137E07B6828
:102578009B69012B01D1012332E01B4B5B68FB6097
:102588007B689B69012B28D0FB6803F480027B6879
:10259800DB699A4221D1FB6803F03F027B681B6A22
:1025A8009A421AD1FA6847F6C07313407A68526A99
:1025B8009201934211D1FB6803F440327B689B6A15
:1025C8005B08013B1B049A4207D1FB6803F0706269
:1025D8007B68DB6A1B069A4201D0012300E00023D6
:1025E80018461837BD4680BD0038024010B30008B1
:1025F8006000474280B584B000AF786039607B687E
:10260800002B01D1012374E17B681B68002B03D0E8
:102618007B681B680F2B04D940F25A217B4805F0D0
:102628008DF93B68002B19D03B68012B16D03B680D
:10263800022B13D03B68032B10D03B68042B0DD022
:102648003B68052B0AD03B68062B07D03B68072B55
:1026580004D040F25B216D4805F070F96C4B1B68A3
:1026680003F007033A689A420CD9694B3A68D2B228
:102678001A70674B1B6803F007033A689A4201D047
:10268800012336E17B681B6803F00203002B49D065
:102698007B681B6803F00403002B05D05D4B9B6827
:1026A8005C4A43F4E05393607B681B6803F00803BB
:1026B800002B05D0574B9B68564A43F46043936000
:1026C8007B689B68002B24D07B689B68802B20D07C
:1026D8007B689B68902B1CD07B689B68A02B18D0CC
:1026E8007B689B68B02B14D07B689B68C02B10D08C
:1026F8007B689B68D02B0CD07B689B68E02B08D04C
:102708007B689B68F02B04D040F27E213F4805F09F
:1027180015F9404B9B6823F0F0027B689B683D49A4
:1027280013438B607B681B6803F00103002B59D0AF
:102738007B685B68002B10D07B685B68012B0CD032
:102748007B685B68022B08D07B685B68032B04D02E
:1027580040F285212D4805F0F1F87B685B68012B74
:1027680007D12C4B1B6803F40033002B19D101232C
:10277800BFE07B685B68022B03D07B685B68032B38
:1027880007D1244B1B6803F00073002B09D10123E8
:10279800AFE0204B1B6803F00203002B01D101239B
:1027A800A7E01C4B9B6823F003027B685B68194910
:1027B80013438B6001F0D4FBF8600AE001F0D0FB12
:1027C8000246FB68D31A41F28832934201D90323A7
:1027D8008FE0104B9B6803F00C027B685B689B00E2
:1027E8009A42EBD10A4B1B6803F007033A689A42F6
:1027F80012D2074B3A68D2B21A70054B1B6803F025
:1028080007033A689A4207D0012372E010B3000820
:10281800003C0240003802407B681B6803F0040358
:10282800002B25D07B68DB68002B18D07B68DB6821
:10283800B3F5805F13D07B68DB68B3F5A05F0ED07B
:102848007B68DB68B3F5C05F09D07B68DB68B3F5EC
:10285800E05F04D040F2C321284805F06FF8284B08
:102868009B6823F4E0527B68DB68254913438B603F
:102878007B681B6803F00803002B26D07B681B6964
:10288800002B18D07B681B69B3F5805F13D07B6879
:102898001B69B3F5A05F0ED07B681B69B3F5C05FF9
:1028A80009D07B681B69B3F5E05F04D040F2CA2108
:1028B800124805F043F8124B9B6823F460427B688A
:1028C8001B69DB000E4913438B6000F021F80246B8
:1028D8000B4B9B681B0903F00F030A49CB5C22FAD8
:1028E80003F3094A1360094B1B68184601F0F4FA10
:1028F800002318461037BD4680BD00BF10B300083E
:1029080000380240A0B600080000002004000020A3
:102918002DE9B04F90B000AF00237B630023FB6329
:1029280000233B630023BB63594B9B6803F00C03F4
:10293800082B0DD0082B00F2A180002B02D0042B0D
:1029480003D09BE0534BBB639BE0534BBB6398E0C6
:102958004F4B5B6803F03F037B634D4B5B6803F4AD
:102968008003002B28D04A4B5B689B0900223B62FE
:102978007A623B6AC3F308000021474B03FB01F26C
:10298800002300FB03F31344434AA0FB0212FA623C
:102998000A46BA62FA6A1344FB627B6B0022BB6187
:1029A800FA61D7E90623D7E90A01FEF7EDF80246EE
:1029B8000B461346FB6353E0354B5B689B090022CB
:1029C8003B617A613B69C3F3080A4FF0000B52463A
:1029D8005B464FF000004FF00001590141EAD26117
:1029E800500102460B46B2EB0A0863EB0B094FF0A5
:1029F80000024FF000034FEA891343EA98634FEA55
:102A08008812B2EB080463EB09054FF000024FF09F
:102A18000003EB0043EA5473E20014461D4614EB2E
:102A28000A033B6045EB0B037B604FF000024FF05D
:102A38000003D7E9004529468B02214643EA915312
:102A480021468A02104619467B6B0022BB60FA6059
:102A5800D7E90223FEF798F802460B461346FB63B4
:102A68000B4B5B681B0C03F0030301335B003B63F8
:102A7800FA6B3B6BB2FBF3F3BB6302E0054BBB6342
:102A880000BFBB6B18464037BD46BDE8B08F00BFDE
:102A9800003802400024F400001BB70080B400AFE7
:102AA800034B1B681846BD465DF8047B704700BFA2
:102AB8000000002080B500AFFFF7F0FF0246054B8D
:102AC8009B689B0A03F007030349CB5C22FA03F3D4
:102AD800184680BD00380240B0B6000880B500AF87
:102AE800FFF7DCFF0246054B9B685B0B03F007030F
:102AF8000349CB5C22FA03F3184680BD0038024034
:102B0800B0B6000880B588B000AF7860396000239F
:102B18007B6100233B610023BB617B68384A934299
:102B280023D07B68374A93421FD07B68364A93424A
:102B38001BD07B68354A934217D07B68344A93424E
:102B480013D07B68334A93420FD07B68324A934252
:102B58000BD07B68314A934207D07B68304A934256
:102B680003D0AC212F4804F0E9FE3B681B689BB2F8
:102B7800002B04D03B681B68B3F5803F03D3AD211D
:102B8800284804F0DBFE3B685B68002B35D03B68C7
:102B98005B68012B31D03B685B68112B2DD03B68FB
:102BA8005B68022B29D03B685B68122B25D03B68F9
:102BB8005B68B3F5881F20D03B685B68B3F5041FDA
:102BC8001BD03B685B68B3F5441F16D03B685B6855
:102BD800B3F5901F11D03B685B68B3F5081F0CD0A4
:102BE8003B685B68B3F5481F07D03B685B68032BFD
:102BF80003D0AE210B4804F0A1FE0023FB6141E2A3
:102C0800000002400004024000080240000C02409C
:102C1800001002400014024000180240001C02404C
:102C28000020024080B300080122FB6902FA03F386
:102C38007B613B681B687A6913403B613A697B6931
:102C48009A4240F01C823B685B6803F00303012B47
:102C580005D03B685B6803F00303022B44D13B6853
:102C6800DB68002B0FD03B68DB68012B0BD03B687F
:102C7800DB68022B07D03B68DB68032B03D0C0213D
:102C8800814804F05BFE7B689B68BB61FB695B0065
:102C9800032202FA03F3DB43BA691340BB613B68C2
:102CA800DA68FB695B0002FA03F3BA691343BB6194
:102CB8007B68BA699A607B685B68BB610122FB69C3
:102CC80002FA03F3DB43BA691340BB613B685B68F4
:102CD8001B0903F00102FB6902FA03F3BA69134303
:102CE800BB617B68BA695A603B685B6803F00303A1
:102CF800032B27D03B689B68002B0BD03B689B6855
:102D0800012B07D03B689B68022B03D0D1215E487A
:102D180004F014FE7B68DB68BB61FB695B0003227F
:102D280002FA03F3DB43BA691340BB613B689A6854
:102D3800FB695B0002FA03F3BA691343BB617B6862
:102D4800BA69DA603B685B6803F00303022B40F062
:102D5800C1803B681B69002B00F098803B681B69A9
:102D6800092B00F093803B681B69002B00F08E80D4
:102D78003B681B69002B00F089803B681B69002BAE
:102D880000F084803B681B69002B7FD03B681B697F
:102D9800012B7BD03B681B69012B77D03B681B69F3
:102DA800022B73D03B681B69022B6FD03B681B69F1
:102DB800022B6BD03B681B69032B67D03B681B69F0
:102DC800042B63D03B681B69042B5FD03B681B69ED
:102DD800042B5BD03B681B69052B57D03B681B69EC
:102DE800052B53D03B681B69092B4FD03B681B69E7
:102DF800062B4BD03B681B69092B47D03B681B69E6
:102E0800072B43D03B681B69072B3FD03B681B69E6
:102E1800072B3BD03B681B69082B37D03B681B69E5
:102E2800082B33D03B681B69082B2FD03B681B69E4
:102E3800092B2BD03B681B69092B27D03B681B69E2
:102E48000A2B23D03B681B690A2B1FD03B681B69E0
:102E58000B2B1BD03B681B690C2B17D03B681B69DD
:102E68000C2B13D03B681B690D2B0FD03B681B69DB
:102E78000C2B0BD03B681B690F2B07D0DE210248B7
:102E880004F05CFD02E000BF80B30008FB69DA08CB
:102E98007B68083253F82230BB61FB6903F00703F3
:102EA8009B000F2202FA03F3DB43BA691340BB61AC
:102EB8003B681A69FB6903F007039B0002FA03F3F6
:102EC800BA691343BB61FB69DA087B680832B969E0
:102ED80043F822107B681B68BB61FB695B00032217
:102EE80002FA03F3DB43BA691340BB613B685B68D2
:102EF80003F00302FB695B0002FA03F3BA691343A8
:102F0800BB617B68BA691A603B685B6803F440334D
:102F1800002B00F0B4800023FB605F4B5B6C5E4AC3
:102F280043F4804353645C4B5B6C03F48043FB6065
:102F3800FB685A4AFB699B08023352F82330BB618D
:102F4800FB6903F003039B000F2202FA03F3DB4340
:102F5800BA691340BB617B68514A93422BD07B68A6
:102F6800504A934225D07B684F4A93421FD07B68D2
:102F78004E4A934219D07B684D4A934213D07B68DE
:102F88004C4A93420DD07B684B4A934207D07B68EA
:102F98004A4A934201D107230EE008230CE0062396
:102FA8000AE0052308E0042306E0032304E00223E3
:102FB80002E0012300E00023FA6902F00302920014
:102FC8009340BA691343BB613449FB699B080233D8
:102FD800BA6941F823203A4B9B68BB613B69DB43E4
:102FE800BA691340BB613B685B6803F48013002B2C
:102FF80003D0BA693B691343BB61314ABB6993602B
:103008002F4BDB68BB613B69DB43BA691340BB618B
:103018003B685B6803F40013002B03D0BA693B6973
:103028001343BB61264ABB69D360254B5B68BB6110
:103038003B69DB43BA691340BB613B685B6803F4D7
:103048000033002B03D0BA693B691343BB611C4AA8
:10305800BB6953601A4B1B68BB613B69DB43BA69A8
:103068001340BB613B685B6803F48033002B03D0DB
:10307800BA693B691343BB61114ABB691360FB69B9
:103088000133FB61FB690F2B7FF6CEAD00BF00BF9C
:103098002037BD4680BD00BF0038024000380140DF
:1030A800000002400004024000080240000C0240F8
:1030B800001002400014024000180240001C0240A8
:1030C800003C014080B582B000AF78600B467B8041
:1030D80013467B707B88002B04D140F29D110E486B
:1030E80004F02CFC7B78002B07D07B78012B04D0D4
:1030F8004FF4CF71084804F021FC7B78002B03D0F3
:103108007A887B689A6103E07B881A047B689A61F5
:1031180000BF0837BD4680BD80B3000880B586B0C3
:1031280000AF786000237B6100F01AFF38617B688C
:10313800002B01D1012303E27B681B688B4A934271
:103148004ED07B681B688A4A934249D07B681B68CB
:10315800884A934244D07B681B68874A93423FD091
:103168007B681B68854A93423AD07B681B68844A0F
:10317800934235D07B681B68824A934230D07B6883
:103188001B68814A93422BD07B681B687F4A934215
:1031980026D07B681B687E4A934221D07B681B68D7
:1031A8007C4A93421CD07B681B687B4A934217D0A9
:1031B8007B681B68794A934212D07B681B68784AFF
:1031C80093420DD07B681B68764A934208D07B688F
:1031D8001B68754A934203D0B721744804F0AEFBCC
:1031E8007B685B68002B26D07B685B68B3F1007F47
:1031F80021D07B685B68B3F1806F1CD07B685B680B
:10320800B3F1C06F17D07B685B68B3F1006F12D061
:103218007B685B68B3F1206F0DD07B685B68B3F1A6
:10322800406F08D07B685B68B3F1606F03D0B8214A
:103238005E4804F083FB7B689B68002B0BD07B689F
:103248009B68402B07D07B689B68802B03D0B921F3
:10325800564804F073FB7B68DB68B3F5007F07D042
:103268007B68DB68002B03D0BA21504804F066FB6A
:103278007B681B69B3F5806F07D07B681B69002BDF
:1032880003D0BB21494804F059FB7B685B69002BDC
:103298000DD07B685B69B3F5006F08D07B685B690C
:1032A800B3F5805F03D0BC21404804F047FB7B683E
:1032B8009B69002B0DD07B689B69B3F5005F08D034
:1032C8007B689B69B3F5804F03D0BD21374804F074
:1032D80035FB7B68DB69002B0CD07B68DB69B3F5B9
:1032E800807F07D07B68DB69202B03D0BE212F4865
:1032F80004F024FB7B681B6A002B12D07B681B6AD6
:10330800B3F5803F0DD07B681B6AB3F5003F08D04A
:103318007B681B6AB3F5403F03D0BF21234804F004
:103328000DFB7B685B6A002B07D07B685B6A042B0C
:1033380003D0C0211D4804F001FB7B685B6A002BA9
:1033480064D07B689B6A002B32D07B689B6A012B18
:103358002ED07B689B6A022B2AD07B689B6A032B42
:1033680026D0C521114804F0E9FA21E01060024096
:10337800286002404060024058600240706002408D
:1033880088600240A0600240B860024010640240B9
:10339800286402404064024058640240706402405D
:1033A80088640240A0640240B8640240F4B3000894
:1033B8007B68DB6A002B12D07B68DB6AB3F5000FF1
:1033C8000DD07B68DB6AB3F1807F08D07B68DB6A4D
:1033D800B3F1C07F03D0C6215B4804F0AFFA7B6825
:1033E8001B6B002B12D07B681B6BB3F5001F0DD035
:1033F8007B681B6BB3F5800F08D07B681B6BB3F53C
:10340800C00F03D0C721504804F098FA7B68022205
:1034180083F835207B68002283F834207B681B689A
:103428001A687B681B6822F001021A600FE000F03E
:1034380097FD02463B69D31A052B08D97B682022E1
:103448005A657B68032283F83520032378E07B687C
:103458001B681B6803F00103002BE8D17B681B681D
:103468001B687B617A69394B13407B617B685A68BA
:103478007B689B681A437B68DB681A437B681B6917
:103488001A437B685B691A437B689B691A437B68AC
:10349800DB691A437B681B6A13437A6913437B61B0
:1034A8007B685B6A042B07D17B68DA6A7B681B6BD5
:1034B80013437A6913437B617B681B687A691A60D6
:1034C8007B681B685B697B617B6923F007037B6111
:1034D8007B685B6A7A6913437B617B685B6A042B50
:1034E80017D17B689B6A7A6913437B617B68DB6AC7
:1034F800002B0ED0786800F011FB0346002B08D093
:103508007B6840225A657B68012283F835200123B5
:1035180016E07B681B687A695A61786800F0C8FA17
:103528000346FB607B68DB6D3F229A40FB689A602C
:103538007B6800225A657B68012283F835200023C6
:1035480018461837BD4680BDF4B300083F8010F018
:1035580080B586B000AFF860B9607A603B60002340
:10356800FB75FB689B6D3B613B68002B03D03B6898
:10357800B3F5803F04D340F2CB11274804F0DEF9BD
:10358800FB6893F83430012B01D1022340E0FB683B
:10359800012283F83420FB6893F83530DBB2012B25
:1035A8002FD1FB68022283F83520FB6800225A6578
:1035B8003B687A68B968F86800F04CFAFB68DB6D1C
:1035C8003F229A403B699A60FB681B681A68FB684F
:1035D8001B6842F016021A60FB681B6C002B07D0B0
:1035E800FB681B681A68FB681B6842F008021A60CF
:1035F800FB681B681A68FB681B6842F001021A60C6
:1036080005E0FB68002283F834200223FB75FB7D6C
:1036180018461837BD4680BDF4B3000880B584B09D
:1036280000AF78607B689B6DFB6000F099FCB86028
:103638007B6893F83530DBB2022B08D07B68802298
:103648005A657B68002283F83420012352E07B68A6
:103658001B681A687B681B6822F016021A607B6870
:103668001B685A697B681B6822F080025A617B6874
:103678001B6C002B03D17B689B6C002B07D07B68ED
:103688001B681A687B681B6822F008021A607B684E
:103698001B681A687B681B6822F001021A6013E035
:1036A80000F05EFC0246BB68D31A052B0CD97B6878
:1036B80020225A657B68032283F835207B68002224
:1036C80083F83420032315E07B681B681B6803F02C
:1036D8000103002BE4D17B68DB6D3F229A40FB6835
:1036E8009A607B68012283F835207B68002283F882
:1036F8003420002318461037BD4680BD80B483B0FF
:1037080000AF78607B6893F83530DBB2022B04D0C9
:103718007B6880225A6501230CE07B68052283F8C8
:1037280035207B681B681A687B681B6822F00102D9
:103738001A60002318460C37BD465DF8047B7047B5
:1037480080B586B000AF78600023BB608E4B1B68E5
:103758008E4AA2FB03239B0A7B617B689B6D3B61BE
:103768003B691B68FB607B68DB6D08229A40FB683D
:103778001340002B1AD07B681B681B6803F00403F6
:10378800002B13D07B681B681A687B681B6822F0C3
:1037980004021A607B68DB6D08229A403B699A60D4
:1037A8007B685B6D43F001027B685A657B68DB6D63
:1037B80001229A40FB681340002B12D07B681B68DB
:1037C8005B6903F08003002B0BD07B68DB6D012263
:1037D8009A403B699A607B685B6D43F002027B68A4
:1037E8005A657B68DB6D04229A40FB681340002B06
:1037F80012D07B681B681B6803F00203002B0BD0F8
:103808007B68DB6D04229A403B699A607B685B6D3C
:1038180043F004027B685A657B68DB6D10229A408E
:10382800FB681340002B43D07B681B681B6803F0C0
:103838000803002B3CD07B68DB6D10229A403B6963
:103848009A607B681B681B6803F48023002B18D0E0
:103858007B681B681B6803F40023002B08D17B6876
:103868001B6C002B24D07B681B6C786898471FE082
:103878007B689B6C002B1BD07B689B6C7868984797
:1038880016E07B681B681B6803F48073002B07D164
:103898007B681B681A687B681B6822F008021A603C
:1038A8007B681B6C002B03D07B681B6C786898477F
:1038B8007B68DB6D20229A40FB681340002B00F0E8
:1038C8008F807B681B681B6803F01003002B00F0D7
:1038D80087807B68DB6D20229A403B699A607B6811
:1038E80093F83530DBB2052B36D17B681B681A6834
:1038F8007B681B6822F016021A607B681B685A698D
:103908007B681B6822F080025A617B681B6C002B65
:1039180003D17B689B6C002B07D07B681B681A68F7
:103928007B681B6822F008021A607B68DB6D3F2207
:103938009A403B699A607B68012283F835207B684E
:10394800002283F834207B681B6D002B7ED07B68B7
:103958001B6D7868984779E07B681B681B6803F4DF
:103968008023002B1DD07B681B681B6803F4002391
:10397800002B0DD17B685B6C002B31D07B685B6CB6
:10398800786898472CE000BF00000020B5814E1BE6
:103998007B68DB6B002B23D07B68DB6B78689847F0
:1039A8001EE07B681B681B6803F48073002B0FD133
:1039B8007B681B681A687B681B6822F010021A6013
:1039C8007B68012283F835207B68002283F8342045
:1039D8007B68DB6B002B03D07B68DB6B78689847D0
:1039E8007B685B6D002B32D07B685B6D03F0010355
:1039F800002B22D07B68052283F835207B681B6862
:103A08001A687B681B6822F001021A60BB680133E0
:103A1800BB607A699A4207D37B681B681B6803F00E
:103A28000103002BF2D100E000BF7B68012283F87C
:103A380035207B68002283F834207B68DB6C002B00
:103A480005D07B68DB6C7868984700E000BF1837C2
:103A5800BD4680BD80B485B000AFF860B9607A60BB
:103A68003B60FB681B681A68FB681B6822F48022AD
:103A78001A60FB681B683A685A60FB689B68402BB1
:103A880008D1FB681B687A689A60FB681B68BA688B
:103A9800DA6007E0FB681B68BA689A60FB681B6815
:103AA8007A68DA6000BF1437BD465DF8047B70475A
:103AB80080B485B000AF78607B681B68DBB2103BD0
:103AC800144AA2FB03231B09FB60134AFB68134437
:103AD8001B781A467B68DA65FB68032B09D97B6873
:103AE8001B6823F47F7323F003031A1D7B689A6510
:103AF80007E07B681B6823F47F7323F003037A686D
:103B080093657B689B6D18461437BD465DF8047B4A
:103B1800704700BFABAAAAAAB8B6000880B485B09F
:103B280000AF78600023FB737B689B6ABB607B688F
:103B38009B69002B1FD1BB68032B56D801A252F8F2
:103B480023F000BF5D3B00086F3B00085D3B0008A9
:103B5800F33B00087B68DB6A03F08073002B46D0D8
:103B68000123FB7343E07B68DB6AB3F1C07F40D17C
:103B78000123FB733DE07B689B69B3F5005F21D1AE
:103B8800BB68032B37D801A252F823F0A53B0008E5
:103B9800AB3B0008A53B0008BD3B00080123FB73B5
:103BA80030E07B68DB6A03F08073002B25D00123AB
:103BB800FB7322E07B68DB6AB3F1C07F1FD101236E
:103BC800FB731CE0BB68022B03D9BB68032B03D033
:103BD80018E00123FB7315E07B68DB6A03F0807350
:103BE800002B0ED00123FB730BE000BF0AE000BFDF
:103BF80008E000BF06E000BF04E000BF02E000BF2D
:103C080000E000BFFB7B18461437BD465DF8047B17
:103C1800704700BF80B485B000AF78607B6803F060
:103C28000703FB600C4BDB68BB60BA684FF6FF0309
:103C38001340BB60FB681A02BB68134343F0BF63C1
:103C480043F40033BB60044ABB68D36000BF143739
:103C5800BD465DF8047B704700ED00E080B400AF1E
:103C6800044BDB681B0A03F007031846BD465DF8E2
:103C7800047B704700ED00E080B483B000AF0346DA
:103C8800FB7197F90730002B0BDBFB7903F01F0260
:103C9800074997F907305B09012000FA02F241F859
:103CA800232000BF0C37BD465DF8047B704700BF7A
:103CB80000E100E080B483B000AF03463960FB71D7
:103CC80097F90730002B0ADB3B68DAB20C4997F901
:103CD80007301201D2B20B4483F800230AE03B6894
:103CE800DAB20849FB7903F00F03043B1201D2B2A0
:103CF8000B441A7600BF0C37BD465DF8047B70474D
:103D080000E100E000ED00E080B489B000AFF860A9
:103D1800B9607A60FB6803F00703FB61FB69C3F1D4
:103D28000703042B28BF0423BB61FB690433062B5C
:103D380002D9FB69033B00E000237B614FF0FF32AF
:103D4800BB6902FA03F3DA43BB681A407B699A40FD
:103D58004FF0FF317B6901FA03F3D9437B680B40CD
:103D6800134318462437BD465DF8047B70470000AE
:103D780080B582B000AF78607B68013BB3F1807F8B
:103D880001D301230FE00A4A7B68013B53600F21EE
:103D98004FF0FF30FFF78EFF054B00229A60044B6F
:103DA80007221A60002318460837BD4680BD00BFA9
:103DB80010E000E080B582B000AF78607B68072B28
:103DC8000FD07B68062B0CD07B68052B09D07B684D
:103DD800042B06D07B68032B03D09021044803F002
:103DE800ADFD7868FFF716FF00BF0837BD4680BDF8
:103DF80064B4000880B586B000AF0346B9607A6045
:103E0800FB7300237B617B680F2B03D9A8210E4825
:103E180003F094FDBB680F2B03D9A9210A4803F0CE
:103E28008DFDFFF71BFF78617A68B9687869FFF73D
:103E38006BFF024697F90F3011461846FFF73AFF15
:103E480000BF1837BD4680BD64B4000880B582B095
:103E580000AF0346FB7197F90730002B03DABC214A
:103E6800054803F06BFD97F907301846FFF704FF84
:103E780000BF0837BD4680BD64B4000880B582B075
:103E880000AF78607868FFF773FF03461846083775
:103E9800BD4680BD80B500AF0E4B1B680D4A43F48C
:103EA800007313600B4B1B680A4A43F4806313606A
:103EB800084B1B68074A43F4807313600320FFF71D
:103EC80079FF0F2000F008F803F0E2FD0023184600
:103ED80080BD00BF003C024080B582B000AF786072
:103EE800124B1A68124B1B7819464FF47A73B3FBBE
:103EF800F1F3B2FBF3F31846FFF7C0FF0346002BBC
:103F080001D001230EE07B680F2B0AD800227968C4
:103F18004FF0FF30FFF76EFF064A7B6813600023FF
:103F280000E0012318460837BD4680BD0000002088
:103F3800080000200400002080B400AF064B1B7866
:103F48001A46064B1B681344044A136000BFBD465B
:103F58005DF8047B704700BF08000020B401002012
:103F680080B400AF034B1B681846BD465DF8047B60
:103F7800704700BFB401002080B582B000AF786000
:103F88007B68002B01D101237EE17B681B68704AA6
:103F980093420ED07B681B686E4A934209D07B68B7
:103FA8001B686D4A934204D04FF4A1716B4803F02B
:103FB800C5FC7B685B68002B09D07B685B68B3F540
:103FC800827F04D040F24311644803F0B7FC7B6859
:103FD8009B68002B0ED07B689B68B3F5806F09D077
:103FE8007B689B68B3F5004F04D04FF4A2715B481F
:103FF80003F0A4FC7B68DB68B3F5006F08D07B682E
:10400800DB68002B04D040F24511544803F096FCBD
:104018007B689B69B3F5007F0DD07B689B69002B9B
:1040280009D07B689B69B3F5802F04D04FF4A37146
:104038004A4803F083FC7B68DB69002B20D07B684F
:10404800DB69082B1CD07B68DB69102B18D07B68D8
:10405800DB69182B14D07B68DB69202B10D07B68B8
:10406800DB69282B0CD07B68DB69302B08D07B6898
:10407800DB69382B04D040F24711384803F05EFC66
:104088007B681B6A002B08D07B681B6A802B04D0D6
:104098004FF4A471314803F051FC7B685B6A002B34
:1040A80008D07B685B6A102B04D040F249112B487A
:1040B80003F044FC7B685B6A002B51D17B681B6969
:1040C800002B08D07B681B69022B04D04FF4A67123
:1040D800224803F033FC7B685B69002B08D07B68BF
:1040E8005B69012B04D040F24D111C4803F026FCFB
:1040F8007B685B68B3F5827F25D17B68DB69002B21
:1041080059D07B68DB69082B55D07B68DB69102B9D
:1041180051D07B68DB69182B4DD07B68DB69202B7D
:1041280049D07B68DB69282B45D07B68DB69302B5D
:1041380041D07B68DB69382B3DD040F251110748EC
:1041480003F0FCFB37E07B680022DA6133E000BF54
:104158000030014000380040003C0040D8B400085E
:104168007B68DB69002B20D07B68DB69082B1CD0BF
:104178007B68DB69102B18D07B68DB69182B14D09F
:104188007B68DB69202B10D07B68DB69282B0CD07F
:104198007B68DB69302B08D07B68DB69382B04D05F
:1041A80040F25B113A4803F0C9FB7B6800221A61B0
:1041B8007B6800225A617B6800229A627B6893F8C8
:1041C8005130DBB2002B06D17B68002283F85020E7
:1041D800786803F0F5FB7B68022283F851207B683E
:1041E8001B681A687B681B6822F040021A607B68AB
:1041F8005B6803F482727B689B6803F404431A4388
:104208007B68DB6803F400631A437B681B6903F06F
:1042180002031A437B685B6903F001031A437B6856
:104228009B6903F400731A437B68DB6903F0380366
:104238001A437B681B6A03F0800342EA03017B6828
:104248009B6A03F400527B681B680A431A607B6808
:104258009B691B0C03F004017B685B6A03F0100286
:104268007B681B680A435A607B681B68DA697B684D
:104278001B6822F40062DA617B6800225A657B6859
:10428800012283F85120002318460837BD4680BD17
:10429800D8B4000880B582B000AF78607B68002B86
:1042A80001D10123EDE07B681B68784A934245D031
:1042B8007B681B68B3F1804F40D07B681B68744AE9
:1042C80093423BD07B681B68724A934236D07B6826
:1042D8001B68714A934231D07B681B686F4A9342CE
:1042E8002CD07B681B686E4A934227D07B681B687A
:1042F8006C4A934222D07B681B686B4A93421DD05C
:104308007B681B68694A934218D07B681B68684AB7
:10431800934213D07B681B68664A93420ED07B6831
:104328001B68654A934209D07B681B68634A9342BD
:1043380004D040F21311624803F000FB7B689B68CD
:10434800002B14D07B689B68102B10D07B689B686F
:10435800202B0CD07B689B68402B08D07B689B681F
:10436800602B04D04FF48A71554803F0E7FA7B6854
:104378001B69002B0ED07B681B69B3F5807F09D0C1
:104388007B681B69B3F5007F04D040F215114C48D7
:1043980003F0D4FA7B681B68B3F1804F04D07B68C4
:1043A8001B683D4A934207D17B68DB68002B14BF2A
:1043B80001230023DBB20EE07B68DB68002B06D00C
:1043C8007B68DB68B3F5803F01D2012300E000235E
:1043D80003F00103DBB2002B04D14FF48B71384892
:1043E80003F0ACFA7B689B69002B08D07B689B695B
:1043F800802B04D040F21711314803F09FFA7B68F4
:1044080093F83D30DBB2002B06D17B68002283F89D
:104418003C20786803F0E8FC7B68022283F83D20A2
:104428007B681A687B6804331946104601F0A2F8C5
:104438007B68012283F846207B68012283F83E20AE
:104448007B68012283F83F207B68012283F84020A3
:104458007B68012283F841207B68012283F842208F
:104468007B68012283F843207B68012283F844207B
:104478007B68012283F845207B68012283F83D2070
:10448800002318460837BD4680BD00BF0000014024
:104498000004004000080040000C004000100040EC
:1044A8000014004000040140004001400044014065
:1044B8000048014000180040001C00400020004057
:1044C80048B5000880B584B000AF78607B681B6889
:1044D800514A934245D07B681B68B3F1804F40D066
:1044E8007B681B684D4A93423BD07B681B684C4AEB
:1044F800934236D07B681B684A4A934231D07B6826
:104508001B68494A93422CD07B681B68474A9342F0
:1045180027D07B681B68464A934222D07B681B6879
:10452800444A93421DD07B681B68434A934218D083
:104538007B681B68414A934213D07B681B68404ADA
:1045480093420ED07B681B683E4A934209D07B6831
:104558001B683D4A934204D04FF4E8713B4803F08E
:10456800EDF97B6893F83D30DBB2012B01D00123D4
:104578004EE07B68022283F83D207B681B68DA687E
:104588007B681B6842F00102DA607B681B68224A7C
:10459800934222D07B681B68B3F1804F1DD07B68A3
:1045A8001B681E4A934218D07B681B681C4A9342BA
:1045B80013D07B681B681B4A93420ED07B681B682C
:1045C8001B4A934209D07B681B681A4A934204D05D
:1045D8007B681B681A4A934211D17B681B689B68E9
:1045E80003F00703FB60FB68062B10D07B681B6891
:1045F8001A687B681B6842F001021A6007E07B6852
:104608001B681A687B681B6842F001021A60002365
:1046180018461037BD4680BD000001400004004028
:1046280000080040000C004000100040001400404A
:10463800000401400040014000440140004801409E
:1046480000180040001C00400020004048B5000849
:1046580080B582B000AF78607B68002B01D1012360
:10466800EDE07B681B68784A934245D07B681B68FD
:10467800B3F1804F40D07B681B68744A93423BD0AB
:104688007B681B68724A934236D07B681B68714A04
:10469800934231D07B681B686F4A93422CD07B6869
:1046A8001B686E4A934227D07B681B686C4A93420A
:1046B80022D07B681B686B4A93421DD07B681B68BD
:1046C800694A934218D07B681B68684A934213D0A2
:1046D8007B681B68664A93420ED07B681B68654AF4
:1046E800934209D07B681B68634A934204D040F226
:1046F8002C51624803F022F97B689B68002B14D088
:104708007B689B68102B10D07B689B68202B0CD093
:104718007B689B68402B08D07B689B68602B04D023
:1047280040F22D51554803F009F97B681B69002BAD
:104738000ED07B681B69B3F5807F09D07B681B6945
:10474800B3F5007F04D040F22E514C4803F0F6F840
:104758007B681B68B3F1804F04D07B681B683D4AB7
:10476800934207D17B68DB68002B14BF0123002329
:10477800DBB20EE07B68DB68002B06D07B68DB6869
:10478800B3F5803F01D2012300E0002303F00103C9
:10479800DBB2002B04D140F22F51384803F0CEF899
:1047A8007B689B69002B08D07B689B69802B04D0B1
:1047B8004FF4A661314803F0C1F87B6893F83D30A7
:1047C800DBB2002B06D17B68002283F83C20786896
:1047D80000F056F87B68022283F83D207B681A684F
:1047E8007B6804331946104600F0C4FE7B6801223A
:1047F80083F846207B68012283F83E207B680122EB
:1048080083F83F207B68012283F840207B680122DF
:1048180083F841207B68012283F842207B680122CB
:1048280083F843207B68012283F844207B680122B7
:1048380083F845207B68012283F83D200023184631
:104848000837BD4680BD00BF00000140000400409D
:1048580000080040000C0040001000400014004018
:10486800000401400040014000440140004801406C
:1048780000180040001C00400020004048B5000817
:1048880080B483B000AF786000BF0C37BD465DF8D8
:10489800047B704780B584B000AF78607B681B6884
:1048A800DB68FB607B681B681B69BB60BB6803F047
:1048B8000203002B20D0FB6803F00203002B1BD05F
:1048C8007B681B686FF002021A617B6801221A7705
:1048D8007B681B689B6903F00303002B03D078688F
:1048E80000F02AFE05E0786800F01CFE786800F009
:1048F8002DFE7B6800221A77BB6803F00403002BA7
:1049080020D0FB6803F00403002B1BD07B681B68D6
:104918006FF004021A617B6802221A777B681B68B1
:104928009B6903F44073002B03D0786800F004FE01
:1049380005E0786800F0F6FD786800F007FE7B680F
:1049480000221A77BB6803F00803002B20D0FB680D
:1049580003F00803002B1BD07B681B686FF008026C
:104968001A617B6804221A777B681B68DB6903F08D
:104978000303002B03D0786800F0DEFD05E07868BB
:1049880000F0D0FD786800F0E1FD7B6800221A771E
:10499800BB6803F01003002B20D0FB6803F0100362
:1049A800002B1BD07B681B686FF010021A617B68B4
:1049B80008221A777B681B68DB6903F44073002BB5
:1049C80003D0786800F0B8FD05E0786800F0AAFD2B
:1049D800786800F0BBFD7B6800221A77BB6803F09B
:1049E8000103002B0CD0FB6803F00103002B07D058
:1049F8007B681B686FF001021A61786803F05AFE41
:104A0800BB6803F08003002B0CD0FB6803F0800325
:104A1800002B07D07B681B686FF080021A617868EA
:104A280001F00AFABB6803F04003002B0CD0FB68C6
:104A380003F04003002B07D07B681B686FF040022F
:104A48001A61786800F08CFDBB6803F02003002B26
:104A58000CD0FB6803F02003002B07D07B681B6891
:104A68006FF020021A61786801F0DCF900BF103796
:104A7800BD4680BD80B586B000AFF860B9607A6089
:104A88000023FB757B68002B10D07B68042B0DD0AE
:104A98007B68082B0AD07B680C2B07D07B683C2BE3
:104AA80004D041F28201834802F048FFBB681B68CA
:104AB800602B08D0BB681B68702B04D041F28301BF
:104AC8007C4802F03BFFBB689B68002B08D0BB68A2
:104AD8009B68022B04D041F28401764802F02EFF35
:104AE800BB681B69002B08D0BB681B69042B04D06A
:104AF80041F285016F4802F021FFFB6893F83C30D2
:104B0800012B01D102237CE1FB68012283F83C20C0
:104B18007B680C2B00F26D8101A252F823F000BFD4
:104B28005D4B0008FB4D0008FB4D0008FB4D0008DD
:104B38001F4C0008FB4D0008FB4D0008FB4D00080A
:104B4800ED4C0008FB4D0008FB4D0008FB4D00082C
:104B5800734D0008FB681B68574A93423BD0FB68BB
:104B68001B68B3F1804F36D0FB681B68534A9342E9
:104B780031D0FB681B68524A93422CD0FB681B68F3
:104B8800504A934227D0FB681B684F4A934222D071
:104B9800FB681B684D4A93421DD0FB681B684C4A52
:104BA800934218D0FB681B684A4A934213D0FB68AB
:104BB8001B68494A93420ED0FB681B68474A9342D8
:104BC80009D0FB681B68464A934204D041F28F0122
:104BD800384802F0B3FEFB681B68B968184600F055
:104BE8006FFDFB681B689A69FB681B6842F0080246
:104BF8009A61FB681B689A69FB681B6822F00402CB
:104C08009A61FB681B689969BB681A69FB681B682D
:104C18000A439A61F0E0FB681B68274A934227D051
:104C2800FB681B68B3F1804F22D0FB681B68234ADE
:104C380093421DD0FB681B68214A934218D0FB6839
:104C48001B68204A934213D0FB681B681E4A934294
:104C58000ED0FB681B681D4A934209D0FB681B688D
:104C68001D4A934204D04FF48551124802F066FE63
:104C7800FB681B68B968184600F0BCFDFB681B6838
:104C88009A69FB681B6842F400629A61FB681B68BA
:104C98009A69FB681B6822F480629A61FB681B684A
:104CA8009969BB681B691A02FB681B680A439A6109
:104CB800A2E000BF48B50008000001400004004021
:104CC80000080040000C0040000401400040014082
:104CD800004401400048014000180040001C00400A
:104CE80000200040FB681B68484A93421DD0FB68BF
:104CF8001B68B3F1804F18D0FB681B68444A934285
:104D080013D0FB681B68434A93420ED0FB681B68AC
:104D1800414A934209D0FB681B68404A934204D039
:104D280041F2B1013E4802F009FEFB681B68B96810
:104D3800184600F0FDFDFB681B68DA69FB681B6814
:104D480042F00802DA61FB681B68DA69FB681B68D5
:104D580022F00402DA61FB681B68D969BB681A692A
:104D6800FB681B680A43DA6146E0FB681B68274A50
:104D780093421DD0FB681B68B3F1804F18D0FB68C5
:104D88001B68234A934213D0FB681B68214A93424D
:104D98000ED0FB681B68204A934209D0FB681B6849
:104DA8001E4A934204D041F2C2011D4802F0C6FDDA
:104DB800FB681B68B968184600F058FEFB681B685A
:104DC800DA69FB681B6842F40062DA61FB681B68F9
:104DD800DA69FB681B6822F48062DA61FB681B6889
:104DE800D969BB681B691A02FB681B680A43DA6148
:104DF80002E00123FB7500BFFB68002283F83C201A
:104E0800FB7D18461837BD4680BD00BF0000014035
:104E18000004004000080040000C0040000401406D
:104E280048B5000880B584B000AF786039600023C9
:104E3800FB737B6893F83C30012B01D102235CE3C0
:104E48007B68012283F83C207B68022283F83D209E
:104E58003B681B68B3F5805F29D03B681B68702BE3
:104E680025D03B681B68B3F5005F20D03B681B6802
:104E7800402B1CD03B681B68502B18D03B681B6824
:104E8800602B14D03B681B68002B10D03B681B6854
:104E9800102B0CD03B681B68202B08D03B681B6884
:104EA800302B04D041F2C341934802F047FD7B68A0
:104EB8001B689B68BB60BB6823F07703BB60BB685B
:104EC80023F47F43BB607B681B68BA689A603B68C1
:104ED8001B68B3F5005F00F02B81B3F5005F00F2AB
:104EE800FF82B3F5805F2ED0B3F5805F00F2F882C1
:104EF800702B00F08280702B00F2F282602B00F0A1
:104F0800F981602B00F2EC82502B00F08281502B4B
:104F180000F2E682402B00F04D82402B00F2E08246
:104F2800302B00F0A782302B00F2DA82202B00F021
:104F3800A182202B00F2D482002B00F09B82102B40
:104F480000F09882CCE27B681B686C4A934200F0C0
:104F5800CA827B681B68B3F1804F00F0C4827B680B
:104F68001B68674A934200F0BE827B681B68654AEB
:104F7800934200F0B8827B681B68634A934200F052
:104F8800B2827B681B68614A934200F0AC827B68FE
:104F98001B685F4A934200F0A6827B681B685D4AE3
:104FA800934200F0A0827B681B685B4A934200F042
:104FB8009A827B681B68594A934200F094827B6806
:104FC8001B68574A934200F08E827B681B68554ADB
:104FD800934200F088827B681B68534A934200F032
:104FE80082827B681B68514A934200F07C8241F2BE
:104FF800CF41414802F0A2FC75E27B681B683F4A3A
:10500800934227D07B681B68B3F1804F22D07B681E
:105018001B683B4A93421DD07B681B68394A934200
:1050280018D07B681B68384A934213D07B681B688A
:10503800384A93420ED07B681B68374A934209D09E
:105048007B681B68374A934204D041F2D6412A480C
:1050580002F074FC3B689B68002B13D03B689B688C
:10506800B3F5805F0ED03B689B68B3F5005F09D04D
:105078003B689B68B3F5405F04D041F2D9411E48B4
:1050880002F05CFC3B685B68B3F5004F14D03B68EA
:105098005B68002B10D03B685B68002B0CD03B682A
:1050A8005B68022B08D03B685B680A2B04D041F28E
:1050B800DA41114802F042FC3B68DB680F2B04D947
:1050C80041F2DB410C4802F039FC7B6818683B6808
:1050D80099683B685A683B68DB6800F0A5FD7B6807
:1050E8001B689B68BB60BB6843F07703BB607B6849
:1050F8001B68BA689A60F7E148B5000800000140EB
:105108000004004000080040000C0040001000406F
:1051180000140040000401400040014000440140E8
:105128000048014000180040001C004000200040DA
:105138007B681B68674A93421DD07B681B68B3F184
:10514800804F18D07B681B68634A934213D07B68F2
:105158001B68624A93420ED07B681B68604A934280
:1051680009D07B681B685F4A934204D041F2EE4144
:105178005D4802F0E3FB3B689B68002B13D03B685B
:105188009B68B3F5805F0ED03B689B68B3F5005F02
:1051980009D03B689B68B3F5405F04D041F2F14108
:1051A800514802F0CBFB3B685B68B3F5004F14D065
:1051B8003B685B68002B10D03B685B68002B0CD009
:1051C8003B685B68022B08D03B685B680A2B04D0FD
:1051D80041F2F241444802F0B1FB3B68DB680F2B17
:1051E80004D941F2F341404802F0A8FB7B681868F3
:1051F8003B6899683B685A683B68DB6800F014FDB7
:105208007B681B689A687B681B6842F480429A60D6
:105218006AE17B681B682F4A934227D07B681B682A
:10522800B3F1804F22D07B681B682B4A93421DD074
:105238007B681B68294A934218D07B681B68284AF8
:10524800934213D07B681B68264A93420ED07B6832
:105258001B68264A934209D07B681B68244A9342FC
:1052680004D041F20251204802F068FB3B685B68B9
:10527800B3F5004F14D03B685B68002B10D03B6837
:105288005B68002B0CD03B685B68022B08D03B683E
:105298005B680A2B04D041F20551134802F04EFB1B
:1052A8003B68DB680F2B04D941F206510E4802F027
:1052B80045FB7B6818683B6859683B68DB681A4699
:1052C80000F038FC7B681B685021184600F091FC00
:1052D8000AE100BF0000014000040040000800404F
:1052E800000C00400004014048B50008004001409F
:1052F800001800407B681B68824A934227D07B686D
:105308001B68B3F1804F22D07B681B687E4A9342AA
:105318001DD07B681B687D4A934218D07B681B6848
:105328007B4A934213D07B681B687A4A93420ED01B
:105338007B681B68784A934209D07B681B68774A68
:10534800934204D041F21251754802F0F7FA3B68D3
:105358005B68B3F5004F14D03B685B68002B10D036
:105368003B685B68002B0CD03B685B68022B08D05D
:105378003B685B680A2B04D041F21551684802F07B
:10538800DDFA3B68DB680F2B04D941F216516448FB
:1053980002F0D4FA7B6818683B6859683B68DB6898
:1053A8001A4600F0F6FB7B681B686021184600F07F
:1053B80020FC99E07B681B68524A934227D07B689F
:1053C8001B68B3F1804F22D07B681B684E4A93421A
:1053D8001DD07B681B684D4A934218D07B681B68B8
:1053E8004B4A934213D07B681B684A4A93420ED0BB
:1053F8007B681B68484A934209D07B681B68474A08
:10540800934204D041F22251454802F097FA3B6892
:105418005B68B3F5004F14D03B685B68002B10D075
:105428003B685B68002B0CD03B685B68022B08D09C
:105438003B685B680A2B04D041F22551384802F0DA
:105448007DFA3B68DB680F2B04D941F226513448BA
:1054580002F074FA7B6818683B6859683B68DB6837
:105468001A4600F067FB7B681B684021184600F06D
:10547800C0FB39E07B681B68224A934227D07B68CF
:105488001B68B3F1804F22D07B681B681E4A934289
:105498001DD07B681B681D4A934218D07B681B6827
:1054A8001B4A934213D07B681B681A4A93420ED05A
:1054B8007B681B68184A934209D07B681B68174AA7
:1054C800934204D041F23551154802F037FA7B680F
:1054D8001A683B681B681946104600F08AFB03E00F
:1054E8000123FB7300E000BF7B68012283F83D20A5
:1054F8007B68002283F83C20FB7B18461037BD46AA
:1055080080BD00BF000001400004004000080040CA
:10551800000C004000040140004001400018004019
:1055280048B5000880B483B000AF786000BF0C377E
:10553800BD465DF8047B704780B483B000AF7860E7
:1055480000BF0C37BD465DF8047B704780B483B05C
:1055580000AF786000BF0C37BD465DF8047B70472C
:1055680080B483B000AF786000BF0C37BD465DF8EB
:10557800047B704780B485B000AF786039607B6881
:105588001B68FB607B68434A934213D07B68B3F186
:10559800804F0FD07B68404A93420BD07B683F4ACC
:1055A800934207D07B683E4A934203D07B683D4ACA
:1055B800934208D1FB6823F07003FB603B685B688B
:1055C800FA681343FB607B68324A93422BD07B68AE
:1055D800B3F1804F27D07B682F4A934223D07B6852
:1055E8002E4A93421FD07B682D4A93421BD07B687A
:1055F8002C4A934217D07B682B4A934213D07B687E
:105608002A4A93420FD07B68294A93420BD07B6881
:10561800284A934207D07B68274A934203D07B6885
:10562800264A934208D1FB6823F44073FB603B6829
:10563800DB68FA681343FB60FB6823F080023B6871
:105648005B691343FB603B689A687B68DA623B6876
:105658001A687B689A627B680E4A934203D07B681B
:10566800104A934203D13B681A697B681A637B68C6
:105678001B6843F004027B681A607B6801225A6148
:105688007B68FA681A6000BF1437BD465DF8047B72
:10569800704700BF000001400004004000080040BF
:1056A800000C00400004014000400140004401405B
:1056B8000048014000180040001C00400020004045
:1056C80080B586B000AF786039607B681B6A7B6103
:1056D8007B681B6A23F001027B681A627B685B683F
:1056E8003B617B689B69FB60FB6823F07003FB6090
:1056F800FB6823F00303FB603B681B68FA681343ED
:10570800FB607B6923F002037B613B689B687A69D5
:1057180013437B617B68344A934203D07B68334AE6
:10572800934219D13B68DB68002B08D03B68DB68E3
:10573800082B04D041F6CD212D4802F0FFF87B69F3
:1057480023F008037B613B68DB687A6913437B615C
:105758007B6923F004037B617B68234A934203D06F
:105768007B68224A93422DD13B689B69B3F5007F41
:1057780008D03B689B69002B04D041F6DA211C480D
:1057880002F0DCF83B685B69B3F5807F08D03B68C2
:105798005B69002B04D041F6DB21154802F0CEF8F6
:1057A8003B6923F480733B613B6923F400733B61DD
:1057B8003B685B693A6913433B613B689B693A699B
:1057C80013433B617B683A695A607B68FA689A615F
:1057D8003B685A687B685A637B687A691A6200BFBB
:1057E8001837BD4680BD00BF0000014000040140DD
:1057F80048B5000880B586B000AF786039607B682E
:105808001B6A7B617B681B6A23F010027B681A6243
:105818007B685B683B617B689B69FB60FB6823F482
:10582800E043FB60FB6823F44073FB603B681B6844
:105838001B02FA681343FB607B6923F020037B613A
:105848003B689B681B017A6913437B617B68354A17
:10585800934203D07B68344A93421AD13B68DB6891
:10586800002B08D03B68DB68082B04D041F61931BF
:105878002E4802F063F87B6923F080037B613B6864
:10588800DB681B017A6913437B617B6923F0400362
:105898007B617B68234A934203D07B68224A934208
:1058A8002FD13B689B69B3F5007F08D03B689B69A3
:1058B800002B04D041F626311C4802F03FF83B6823
:1058C8005B69B3F5807F08D03B685B69002B04D027
:1058D80041F62731154802F031F83B6923F480631B
:1058E8003B613B6923F400633B613B685B699B0058
:1058F8003A6913433B613B689B699B003A691343D0
:105908003B617B683A695A607B68FA689A613B68D0
:105918005A687B689A637B687A691A6200BF18378D
:10592800BD4680BD000001400004014048B50008A4
:1059380080B586B000AF786039607B681B6A7B6190
:105948007B681B6A23F480727B681A627B685B68D9
:105958003B617B68DB69FB60FB6823F07003FB60DD
:10596800FB6823F00303FB603B681B68FA6813437A
:10597800FB607B6923F400737B613B689B681B02B7
:105988007A6913437B617B68354A934203D07B680D
:10599800344A93421AD13B68DB68002B08D03B6835
:1059A800DB68082B04D041F664312F4801F0C6FFAC
:1059B8007B6923F400637B613B68DB681B027A69BF
:1059C80013437B617B6923F480637B617B68244A92
:1059D800934203D07B68234A93422FD13B689B694B
:1059E800B3F5007F08D03B689B69002B04D041F6D3
:1059F80071311D4801F0A2FF3B685B69B3F5807FF8
:105A080008D03B685B69002B04D041F67231164818
:105A180001F094FF3B6923F480533B613B6923F415
:105A280000533B613B685B691B013A6913433B6167
:105A38003B689B691B013A6913433B617B683A6980
:105A48005A607B68FA68DA613B685A687B68DA638F
:105A58007B687A691A6200BF1837BD4680BD00BFEF
:105A6800000001400004014048B5000880B586B038
:105A780000AF786039607B681B6A3B617B681B6A92
:105A880023F480527B681A627B685B687B617B6861
:105A9800DB69FB60FB6823F4E043FB60FB6823F4ED
:105AA8004073FB603B681B681B02FA681343FB608A
:105AB8003B6923F400533B613B689B681B033A69CD
:105AC80013433B617B68184A934203D07B68174AAB
